{
  "_format": "hh-sol-artifact-1",
  "contractName": "Counter",
  "sourceName": "contracts/Counter.sol",
  "abi": [
    {
      "inputs": [],
      "stateMutability": "nonpayable",
      "type": "constructor"
    },
    {
      "anonymous": false,
      "inputs": [
        {
          "indexed": true,
          "internalType": "address",
          "name": "caller",
          "type": "address"
        },
        {
          "indexed": false,
          "internalType": "uint256",
          "name": "count",
          "type": "uint256"
        }
      ],
      "name": "CountChanged",
      "type": "event"
    },
    {
      "inputs": [],
      "name": "count",
      "outputs": [
        {
          "internalType": "uint256",
          "name": "",
          "type": "uint256"
        }
      ],
      "stateMutability": "view",
      "type": "function"
    },
    {
      "inputs": [],
      "name": "countDown",
      "outputs": [
        {
          "internalType": "bool",
          "name": "",
          "type": "bool"
        }
      ],
      "stateMutability": "nonpayable",
      "type": "function"
    },
    {
      "inputs": [],
      "name": "countUp",
      "outputs": [
        {
          "internalType": "bool",
          "name": "",
          "type": "bool"
        }
      ],
      "stateMutability": "nonpayable",
      "type": "function"
    },
    {
      "inputs": [
        {
          "internalType": "uint256",
          "name": "newCount",
          "type": "uint256"
        }
      ],
      "name": "setCount",
      "outputs": [
        {
          "internalType": "bool",
          "name": "",
          "type": "bool"
        }
      ],
      "stateMutability": "nonpayable",
      "type": "function"
    }
  ],
  "bytecode": "0x608060405234801561001057600080fd5b5060008081905550610358806100276000396000f3fe608060405234801561001057600080fd5b506004361061004c5760003560e01c806306661abd146100515780630bd8599e1461006f5780635fcbd5b61461008f578063d14e62b8146100af575b600080fd5b6100596100f3565b6040518082815260200191505060405180910390f35b6100776100fc565b60405180821515815260200191505060405180910390f35b6100976101de565b60405180821515815260200191505060405180910390f35b6100db600480360360208110156100c557600080fd5b81019080803590602001909291905050506102c0565b60405180821515815260200191505060405180910390f35b60008054905090565b60008060008154809291906001019190505550600080541415610187576040517f08c379a000000000000000000000000000000000000000000000000000000000815260040180806020018281038252600f8152602001807f636f756e7420746f6f206869676821000000000000000000000000000000000081525060200191505060405180910390fd5b3373ffffffffffffffffffffffffffffffffffffffff167f0c6d57b2fe49e083a8ee35f4b7f612ae3ccd7a11b796295c7ee4fa376d166fef6000546040518082815260200191505060405180910390a26001905090565b60008060005411610257576040517f08c379a000000000000000000000000000000000000000000000000000000000815260040180806020018281038252600e8152602001807f636f756e7420746f6f206c6f772100000000000000000000000000000000000081525060200191505060405180910390fd5b6000808154809291906001900391905055503373ffffffffffffffffffffffffffffffffffffffff167f0c6d57b2fe49e083a8ee35f4b7f612ae3ccd7a11b796295c7ee4fa376d166fef6000546040518082815260200191505060405180910390a26001905090565b6000816000819055503373ffffffffffffffffffffffffffffffffffffffff167f0c6d57b2fe49e083a8ee35f4b7f612ae3ccd7a11b796295c7ee4fa376d166fef6000546040518082815260200191505060405180910390a26001905091905056fea2646970667358221220222e78be3e971a4827020c5930eaae776abb52ab77fd32315f82257040269cbb64736f6c63430007030033",
  "linkReferences": {},
  "deployedLinkReferences": {}
}